:020000020000FC
:1000000071C0189518951895189518951895189504
:10001000189557C0189518951895189504C01895F7
:10002000189518951895929A0F930FB70F93BF9341
:10003000AF931F932F933F9391FF1BC09D7F04B1FC
:1000400014B125B13EE237B90F7012951F70B0E0C0
:10005000A0E6FFE1EAEEE20F24912D93EAEEE10F34
:1000600014911D93EAEEE00F04910D930FEF0C93A2
:100070001FC09260939805B110E017B91AB52BB55F
:100080000D37A1F040F051E060E01517260769F048
:10009000115020400BC05FEF63E01517260731F0C9
:1000A00031E04427130F241F01C0939A2BBD1ABDC2
:1000B0003F912F911F91AF91BF910F910FBF0F9162
:1000C00018950F930FB70F93009166000A9514F0DF
:1000D00009F002C0916007E2009366000F910FBF24
:1000E0000F911895B99AC19A00E00BBD0FE00ABDB7
:1000F00001E000BF03E80FBD09E00EBD00E207B953
:100100000EEE06B90FE50DBF04E00EBF00E808B91A
:10011000789407B30C6207BB709A01E50DB909B773
:10012000016009BF02E003BF03E001BBB89AB0E081
:10013000A0E6FFE1E7EF04900D92E6EF04900D9248
:10014000E7EF049000E800220D92EAEF04900C9291
:10015000929890FD01D0FCCF0F93FF93EF939E7F79
:10016000EF91FF910F9108950FB9779BFECF779A8A
:020170000895F0
:101FEA003F065B4F666D7D077F6F777C585E797120
:021FFA00500095
:00000001FF
